{
  "address": "0x52935c34582E152cD6c8fF3f84e51d4bddA16354",
  "abi": [
    {
      "inputs": [],
      "name": "AccessControlBadConfirmation",
      "type": "error"
    },
    {
      "inputs": [
        {
          "internalType": "address",
          "name": "account",
          "type": "address"
        },
        {
          "internalType": "bytes32",
          "name": "neededRole",
          "type": "bytes32"
        }
      ],
      "name": "AccessControlUnauthorizedAccount",
      "type": "error"
    },
    {
      "inputs": [],
      "name": "InvalidInitialization",
      "type": "error"
    },
    {
      "inputs": [],
      "name": "NotEnoughETH",
      "type": "error"
    },
    {
      "inputs": [],
      "name": "NotEnoughTimeWithdraw",
      "type": "error"
    },
    {
      "inputs": [],
      "name": "NotEnoughWithdraw",
      "type": "error"
    },
    {
      "inputs": [],
      "name": "NotInitializing",
      "type": "error"
    },
    {
      "inputs": [],
      "name": "ReentrancyGuardReentrantCall",
      "type": "error"
    },
    {
      "inputs": [
        {
          "internalType": "address",
          "name": "token",
          "type": "address"
        }
      ],
      "name": "SafeERC20FailedOperation",
      "type": "error"
    },
    {
      "anonymous": false,
      "inputs": [
        {
          "indexed": false,
          "internalType": "address",
          "name": "user",
          "type": "address"
        },
        {
          "indexed": false,
          "internalType": "address",
          "name": "asset",
          "type": "address"
        },
        {
          "indexed": false,
          "internalType": "enum AssetManager.AssetType",
          "name": "assetType",
          "type": "uint8"
        },
        {
          "indexed": false,
          "internalType": "uint256",
          "name": "amount",
          "type": "uint256"
        },
        {
          "indexed": false,
          "internalType": "uint256",
          "name": "depositeTime",
          "type": "uint256"
        },
        {
          "indexed": false,
          "internalType": "uint256",
          "name": "timestamp",
          "type": "uint256"
        }
      ],
      "name": "Deposit",
      "type": "event"
    },
    {
      "anonymous": false,
      "inputs": [
        {
          "indexed": false,
          "internalType": "address",
          "name": "user",
          "type": "address"
        },
        {
          "indexed": false,
          "internalType": "uint256",
          "name": "amount",
          "type": "uint256"
        },
        {
          "indexed": false,
          "internalType": "uint256",
          "name": "timestamp",
          "type": "uint256"
        }
      ],
      "name": "DepositETH",
      "type": "event"
    },
    {
      "anonymous": false,
      "inputs": [
        {
          "indexed": false,
          "internalType": "uint64",
          "name": "version",
          "type": "uint64"
        }
      ],
      "name": "Initialized",
      "type": "event"
    },
    {
      "anonymous": false,
      "inputs": [
        {
          "indexed": true,
          "internalType": "bytes32",
          "name": "role",
          "type": "bytes32"
        },
        {
          "indexed": true,
          "internalType": "bytes32",
          "name": "previousAdminRole",
          "type": "bytes32"
        },
        {
          "indexed": true,
          "internalType": "bytes32",
          "name": "newAdminRole",
          "type": "bytes32"
        }
      ],
      "name": "RoleAdminChanged",
      "type": "event"
    },
    {
      "anonymous": false,
      "inputs": [
        {
          "indexed": true,
          "internalType": "bytes32",
          "name": "role",
          "type": "bytes32"
        },
        {
          "indexed": true,
          "internalType": "address",
          "name": "account",
          "type": "address"
        },
        {
          "indexed": true,
          "internalType": "address",
          "name": "sender",
          "type": "address"
        }
      ],
      "name": "RoleGranted",
      "type": "event"
    },
    {
      "anonymous": false,
      "inputs": [
        {
          "indexed": true,
          "internalType": "bytes32",
          "name": "role",
          "type": "bytes32"
        },
        {
          "indexed": true,
          "internalType": "address",
          "name": "account",
          "type": "address"
        },
        {
          "indexed": true,
          "internalType": "address",
          "name": "sender",
          "type": "address"
        }
      ],
      "name": "RoleRevoked",
      "type": "event"
    },
    {
      "anonymous": false,
      "inputs": [
        {
          "indexed": false,
          "internalType": "address",
          "name": "user",
          "type": "address"
        },
        {
          "indexed": false,
          "internalType": "address",
          "name": "asset",
          "type": "address"
        },
        {
          "indexed": false,
          "internalType": "enum AssetManager.AssetType",
          "name": "assetType",
          "type": "uint8"
        },
        {
          "indexed": false,
          "internalType": "uint256",
          "name": "amount",
          "type": "uint256"
        },
        {
          "indexed": false,
          "internalType": "uint256",
          "name": "timestamp",
          "type": "uint256"
        }
      ],
      "name": "Withdraw",
      "type": "event"
    },
    {
      "anonymous": false,
      "inputs": [
        {
          "indexed": false,
          "internalType": "address",
          "name": "user",
          "type": "address"
        },
        {
          "indexed": false,
          "internalType": "uint256",
          "name": "amount",
          "type": "uint256"
        },
        {
          "indexed": false,
          "internalType": "uint256",
          "name": "timestamp",
          "type": "uint256"
        }
      ],
      "name": "WithdrawETH",
      "type": "event"
    },
    {
      "inputs": [],
      "name": "DEFAULT_ADMIN_ROLE",
      "outputs": [
        {
          "internalType": "bytes32",
          "name": "",
          "type": "bytes32"
        }
      ],
      "stateMutability": "view",
      "type": "function"
    },
    {
      "inputs": [
        {
          "components": [
            {
              "internalType": "address",
              "name": "asset",
              "type": "address"
            },
            {
              "internalType": "address",
              "name": "user",
              "type": "address"
            },
            {
              "internalType": "uint256",
              "name": "amount",
              "type": "uint256"
            },
            {
              "internalType": "uint256",
              "name": "depositTime",
              "type": "uint256"
            },
            {
              "internalType": "enum AssetManager.AssetType",
              "name": "assetType",
              "type": "uint8"
            }
          ],
          "internalType": "struct AssetManager.DepositParam",
          "name": "depositParam",
          "type": "tuple"
        }
      ],
      "name": "deposit",
      "outputs": [],
      "stateMutability": "payable",
      "type": "function"
    },
    {
      "inputs": [
        {
          "internalType": "address",
          "name": "asset",
          "type": "address"
        },
        {
          "internalType": "address",
          "name": "",
          "type": "address"
        }
      ],
      "name": "erc20Asset",
      "outputs": [
        {
          "internalType": "uint256",
          "name": "amount",
          "type": "uint256"
        },
        {
          "internalType": "uint256",
          "name": "depositTime",
          "type": "uint256"
        },
        {
          "internalType": "uint256",
          "name": "modifiedTime",
          "type": "uint256"
        }
      ],
      "stateMutability": "view",
      "type": "function"
    },
    {
      "inputs": [
        {
          "internalType": "address",
          "name": "asset",
          "type": "address"
        },
        {
          "internalType": "uint256",
          "name": "tokenId",
          "type": "uint256"
        }
      ],
      "name": "erc721Asset",
      "outputs": [
        {
          "internalType": "address",
          "name": "user",
          "type": "address"
        },
        {
          "internalType": "uint256",
          "name": "depositTime",
          "type": "uint256"
        },
        {
          "internalType": "uint256",
          "name": "modifiedTime",
          "type": "uint256"
        }
      ],
      "stateMutability": "view",
      "type": "function"
    },
    {
      "inputs": [
        {
          "internalType": "address",
          "name": "user",
          "type": "address"
        }
      ],
      "name": "ethAssets",
      "outputs": [
        {
          "internalType": "uint256",
          "name": "amount",
          "type": "uint256"
        }
      ],
      "stateMutability": "view",
      "type": "function"
    },
    {
      "inputs": [
        {
          "internalType": "bytes32",
          "name": "role",
          "type": "bytes32"
        }
      ],
      "name": "getRoleAdmin",
      "outputs": [
        {
          "internalType": "bytes32",
          "name": "",
          "type": "bytes32"
        }
      ],
      "stateMutability": "view",
      "type": "function"
    },
    {
      "inputs": [
        {
          "internalType": "bytes32",
          "name": "role",
          "type": "bytes32"
        },
        {
          "internalType": "address",
          "name": "account",
          "type": "address"
        }
      ],
      "name": "grantRole",
      "outputs": [],
      "stateMutability": "nonpayable",
      "type": "function"
    },
    {
      "inputs": [
        {
          "internalType": "bytes32",
          "name": "role",
          "type": "bytes32"
        },
        {
          "internalType": "address",
          "name": "account",
          "type": "address"
        }
      ],
      "name": "hasRole",
      "outputs": [
        {
          "internalType": "bool",
          "name": "",
          "type": "bool"
        }
      ],
      "stateMutability": "view",
      "type": "function"
    },
    {
      "inputs": [],
      "name": "initialize",
      "outputs": [],
      "stateMutability": "nonpayable",
      "type": "function"
    },
    {
      "inputs": [
        {
          "internalType": "address",
          "name": "operator",
          "type": "address"
        },
        {
          "internalType": "address",
          "name": "from",
          "type": "address"
        },
        {
          "internalType": "uint256",
          "name": "tokenId",
          "type": "uint256"
        },
        {
          "internalType": "bytes",
          "name": "data",
          "type": "bytes"
        }
      ],
      "name": "onERC721Received",
      "outputs": [
        {
          "internalType": "bytes4",
          "name": "",
          "type": "bytes4"
        }
      ],
      "stateMutability": "nonpayable",
      "type": "function"
    },
    {
      "inputs": [
        {
          "internalType": "bytes32",
          "name": "role",
          "type": "bytes32"
        },
        {
          "internalType": "address",
          "name": "callerConfirmation",
          "type": "address"
        }
      ],
      "name": "renounceRole",
      "outputs": [],
      "stateMutability": "nonpayable",
      "type": "function"
    },
    {
      "inputs": [
        {
          "internalType": "bytes32",
          "name": "role",
          "type": "bytes32"
        },
        {
          "internalType": "address",
          "name": "account",
          "type": "address"
        }
      ],
      "name": "revokeRole",
      "outputs": [],
      "stateMutability": "nonpayable",
      "type": "function"
    },
    {
      "inputs": [
        {
          "internalType": "bytes4",
          "name": "interfaceId",
          "type": "bytes4"
        }
      ],
      "name": "supportsInterface",
      "outputs": [
        {
          "internalType": "bool",
          "name": "",
          "type": "bool"
        }
      ],
      "stateMutability": "view",
      "type": "function"
    },
    {
      "inputs": [
        {
          "components": [
            {
              "internalType": "uint256",
              "name": "amount",
              "type": "uint256"
            },
            {
              "internalType": "address",
              "name": "asset",
              "type": "address"
            },
            {
              "internalType": "enum AssetManager.AssetType",
              "name": "assetType",
              "type": "uint8"
            }
          ],
          "internalType": "struct AssetManager.WithdrawParam",
          "name": "withdrawParam",
          "type": "tuple"
        }
      ],
      "name": "withdraw",
      "outputs": [],
      "stateMutability": "nonpayable",
      "type": "function"
    },
    {
      "inputs": [
        {
          "internalType": "uint256",
          "name": "amount",
          "type": "uint256"
        }
      ],
      "name": "withdrawETH",
      "outputs": [],
      "stateMutability": "nonpayable",
      "type": "function"
    },
    {
      "stateMutability": "payable",
      "type": "receive"
    }
  ],
  "transactionHash": "0xe0a43054bba3bba435d4d19fa61a59b038060327d15917969ab83f2fafc5366b",
  "args": [],
  "numDeployments": 1,
  "solcInputHash": "bca3d84e9d0901d0c8af875d75d92ca4",
  "bytecode": "0x608060405234801561001057600080fd5b506001600055611183806100256000396000f3fe6080604052600436106100ec5760003560e01c806388fc6e3d1161008a578063ad55312211610059578063ad5531221461033e578063c6d96ab814610351578063d547741f146103c7578063f14210a6146103e757600080fd5b806388fc6e3d1461027e57806391d14854146102dc5780639f9a7d8a146102fc578063a217fddf1461032957600080fd5b80632f2ff15d116100c65780632f2ff15d1461020957806336568abe146102295780638129fc1c1461024957806382d490171461025e57600080fd5b806301ffc9a714610161578063150b7a0214610196578063248a9ca3146101db57600080fd5b3661015c57341561015a573360009081526001602052604081208054349290610116908490610e6e565b909155505060408051338152346020820152428183015290517f57e8e547a3ef8d890c570ca885b0a8c441be3070e36b7ad4c7d6b9d9316ff2ce9181900360600190a15b005b600080fd5b34801561016d57600080fd5b5061018161017c366004610e81565b610407565b60405190151581526020015b60405180910390f35b3480156101a257600080fd5b506101c26101b1366004610ece565b630a85bd0160e11b95945050505050565b6040516001600160e01b0319909116815260200161018d565b3480156101e757600080fd5b506101fb6101f6366004610f69565b61043e565b60405190815260200161018d565b34801561021557600080fd5b5061015a610224366004610f82565b610460565b34801561023557600080fd5b5061015a610244366004610f82565b610482565b34801561025557600080fd5b5061015a6104ba565b34801561026a57600080fd5b5061015a610279366004610fae565b6105c0565b34801561028a57600080fd5b506102c1610299366004610fc6565b6002602081815260009384526040808520909152918352912080546001820154919092015483565b6040805193845260208401929092529082015260600161018d565b3480156102e857600080fd5b506101816102f7366004610f82565b6107f2565b34801561030857600080fd5b506101fb610317366004610ff0565b60016020526000908152604090205481565b34801561033557600080fd5b506101fb600081565b61015a61034c36600461100b565b61082a565b34801561035d57600080fd5b506103a261036c36600461101d565b60036020908152600092835260408084209091529082529020805460018201546002909201546001600160a01b03909116919083565b604080516001600160a01b03909416845260208401929092529082015260600161018d565b3480156103d357600080fd5b5061015a6103e2366004610f82565b6109de565b3480156103f357600080fd5b5061015a610402366004610f69565b6109fa565b60006001600160e01b03198216637965db0b60e01b148061043857506301ffc9a760e01b6001600160e01b03198316145b92915050565b600090815260008051602061112e833981519152602052604090206001015490565b6104698261043e565b61047281610ac4565b61047c8383610ace565b50505050565b6001600160a01b03811633146104ab5760405163334bd91960e11b815260040160405180910390fd5b6104b58282610b73565b505050565b7ff0c57e16840df040f15088dc2f81fe391c3923bec73e23a9662efc9c229c6a008054600160401b810460ff16159067ffffffffffffffff166000811580156105005750825b905060008267ffffffffffffffff16600114801561051d5750303b155b90508115801561052b575080155b156105495760405163f92ee8a960e01b815260040160405180910390fd5b845467ffffffffffffffff19166001178555831561057357845460ff60401b1916600160401b1785555b83156105b957845460ff60401b19168555604051600181527fc7f505b2f371ae2175ee4913f4499e1f2633a7b5936321eed1cdaeb6115181d29060200160405180910390a15b5050505050565b6105c8610bef565b60006105da606083016040840161105d565b60028111156105eb576105eb611047565b036106bc5760006002816106056040850160208601610ff0565b6001600160a01b031681526020808201929092526040908101600090812033825290925290208054909150823511156106515760405163a45d24d360e01b815260040160405180910390fd5b42816002015482600101546106669190610e6e565b111561068557604051630b9b60a960e31b815260040160405180910390fd5b80546106939083359061107e565b81554260028201556106b66106ae6040840160208501610ff0565b338435610c19565b50610787565b60016106ce606083016040840161105d565b60028111156106df576106df611047565b036107875760006003816106f96040850160208601610ff0565b6001600160a01b03166001600160a01b03168152602001908152602001600020600083600001358152602001908152602001600020905042816002015482600101546107459190610e6e565b111561076457604051630b9b60a960e31b815260040160405180910390fd5b42600282015561078561077d6040840160208501610ff0565b338435610c24565b505b7f3184c4aa4d6d38cf0a957bac3c013f6eaa7ff68d52a1a49eb3c2f6a77056a4c7336107b96040840160208501610ff0565b6107c9606085016040860161105d565b6040516107dd9392919086359042906110b3565b60405180910390a16107ef6001600055565b50565b600091825260008051602061112e833981519152602090815260408084206001600160a01b0393909316845291905290205460ff1690565b610832610bef565b600061084460a083016080840161105d565b600281111561085557610855611047565b036108e157600060028161086c6020850185610ff0565b6001600160a01b03168152602080820192909252604090810160009081203382529092528082208054909350908401359183916108aa908490610e6e565b9091555050606082013560018201554260028201556108db6108cf6020840184610ff0565b33308560400135610c91565b50610982565b60016108f360a083016080840161105d565b600281111561090457610904611047565b0361098257600060038161091b6020850185610ff0565b6001600160a01b031681526020808201929092526040908101600090812085830135825283522080546001600160a01b031916331781556060840135600182015542600282015591506109809061097490840184610ff0565b33308560400135610c9d565b505b7f3dbd681c52754bb3ac309bd8207ea83910d1c4a51ac64a4b45c695c3a65afb3c336109b16020840184610ff0565b6109c160a085016080860161105d565b84604001358560600135426040516107dd969594939291906110eb565b6109e78261043e565b6109f081610ac4565b61047c8383610b73565b610a02610bef565b33600090815260016020526040902054811115610a3257604051632c1d501360e11b815260040160405180910390fd5b3360009081526001602052604081208054839290610a5190849061107e565b9091555050604051339082156108fc029083906000818181858888f19350505050158015610a83573d6000803e3d6000fd5b50604080513381526020810183905242918101919091527f33414635cb2f2957fad92617dadad2a2a914b1914a9db56a5836fe13d56ef6f5906060016107dd565b6107ef8133610d0d565b600060008051602061112e833981519152610ae984846107f2565b610b69576000848152602082815260408083206001600160a01b03871684529091529020805460ff19166001179055610b1f3390565b6001600160a01b0316836001600160a01b0316857f2f8788117e7eff1d82e926ec794901d17c78024a50270940304540a733656f0d60405160405180910390a46001915050610438565b6000915050610438565b600060008051602061112e833981519152610b8e84846107f2565b15610b69576000848152602082815260408083206001600160a01b0387168085529252808320805460ff1916905551339287917ff6391f5c32d9c69d2a47ea670b442974b53935d1edc7fd64eb21e047a839171b9190a46001915050610438565b600260005403610c1257604051633ee5aeb560e01b815260040160405180910390fd5b6002600055565b6104b5838383610d4f565b604051632142170760e11b81523060048201526001600160a01b038381166024830152604482018390528416906342842e0e90606401600060405180830381600087803b158015610c7457600080fd5b505af1158015610c88573d6000803e3d6000fd5b50505050505050565b61047c84848484610dae565b604051632142170760e11b81526001600160a01b0384811660048301528381166024830152604482018390528516906342842e0e90606401600060405180830381600087803b158015610cef57600080fd5b505af1158015610d03573d6000803e3d6000fd5b5050505050505050565b610d1782826107f2565b610d4b5760405163e2517d3f60e01b81526001600160a01b0382166004820152602481018390526044015b60405180910390fd5b5050565b6040516001600160a01b038381166024830152604482018390526104b591859182169063a9059cbb906064015b604051602081830303815290604052915060e01b6020820180516001600160e01b038381831617835250505050610de7565b6040516001600160a01b03848116602483015283811660448301526064820183905261047c9186918216906323b872dd90608401610d7c565b600080602060008451602086016000885af180610e0a576040513d6000823e3d81fd5b50506000513d91508115610e22578060011415610e2f565b6001600160a01b0384163b155b1561047c57604051635274afe760e01b81526001600160a01b0385166004820152602401610d42565b634e487b7160e01b600052601160045260246000fd5b8082018082111561043857610438610e58565b600060208284031215610e9357600080fd5b81356001600160e01b031981168114610eab57600080fd5b9392505050565b80356001600160a01b0381168114610ec957600080fd5b919050565b600080600080600060808688031215610ee657600080fd5b610eef86610eb2565b9450610efd60208701610eb2565b935060408601359250606086013567ffffffffffffffff80821115610f2157600080fd5b818801915088601f830112610f3557600080fd5b813581811115610f4457600080fd5b896020828501011115610f5657600080fd5b9699959850939650602001949392505050565b600060208284031215610f7b57600080fd5b5035919050565b60008060408385031215610f9557600080fd5b82359150610fa560208401610eb2565b90509250929050565b600060608284031215610fc057600080fd5b50919050565b60008060408385031215610fd957600080fd5b610fe283610eb2565b9150610fa560208401610eb2565b60006020828403121561100257600080fd5b610eab82610eb2565b600060a08284031215610fc057600080fd5b6000806040838503121561103057600080fd5b61103983610eb2565b946020939093013593505050565b634e487b7160e01b600052602160045260246000fd5b60006020828403121561106f57600080fd5b813560038110610eab57600080fd5b8181038181111561043857610438610e58565b600381106110af57634e487b7160e01b600052602160045260246000fd5b9052565b6001600160a01b0386811682528516602082015260a081016110d86040830186611091565b6060820193909352608001529392505050565b6001600160a01b0387811682528616602082015260c081016111106040830187611091565b8460608301528360808301528260a083015297965050505050505056fe02dd7bc7dec4dceedda775e58dd541e08a116c6c53815c0bd028192f7b626800a26469706673582212200d13bfbfb2994ee1cb386d5537b487a9cce4b1eb6cf9bfb6e02ec7d0d0ccda2b64736f6c63430008140033",
  "devdoc": {
    "errors": {
      "AccessControlBadConfirmation()": [
        {
          "details": "The caller of a function is not the expected one. NOTE: Don't confuse with {AccessControlUnauthorizedAccount}."
        }
      ],
      "AccessControlUnauthorizedAccount(address,bytes32)": [
        {
          "details": "The `account` is missing a role."
        }
      ],
      "InvalidInitialization()": [
        {
          "details": "The contract is already initialized."
        }
      ],
      "NotInitializing()": [
        {
          "details": "The contract is not initializing."
        }
      ],
      "ReentrancyGuardReentrantCall()": [
        {
          "details": "Unauthorized reentrant call."
        }
      ],
      "SafeERC20FailedOperation(address)": [
        {
          "details": "An operation with an ERC-20 token failed."
        }
      ]
    },
    "events": {
      "Initialized(uint64)": {
        "details": "Triggered when the contract has been initialized or reinitialized."
      },
      "RoleAdminChanged(bytes32,bytes32,bytes32)": {
        "details": "Emitted when `newAdminRole` is set as ``role``'s admin role, replacing `previousAdminRole` `DEFAULT_ADMIN_ROLE` is the starting admin for all roles, despite {RoleAdminChanged} not being emitted signaling this."
      },
      "RoleGranted(bytes32,address,address)": {
        "details": "Emitted when `account` is granted `role`. `sender` is the account that originated the contract call. This account bears the admin role (for the granted role). Expected in cases where the role was granted using the internal {AccessControl-_grantRole}."
      },
      "RoleRevoked(bytes32,address,address)": {
        "details": "Emitted when `account` is revoked `role`. `sender` is the account that originated the contract call:   - if using `revokeRole`, it is the admin role bearer   - if using `renounceRole`, it is the role bearer (i.e. `account`)"
      }
    },
    "kind": "dev",
    "methods": {
      "getRoleAdmin(bytes32)": {
        "details": "Returns the admin role that controls `role`. See {grantRole} and {revokeRole}. To change a role's admin, use {_setRoleAdmin}."
      },
      "grantRole(bytes32,address)": {
        "details": "Grants `role` to `account`. If `account` had not been already granted `role`, emits a {RoleGranted} event. Requirements: - the caller must have ``role``'s admin role. May emit a {RoleGranted} event."
      },
      "hasRole(bytes32,address)": {
        "details": "Returns `true` if `account` has been granted `role`."
      },
      "renounceRole(bytes32,address)": {
        "details": "Revokes `role` from the calling account. Roles are often managed via {grantRole} and {revokeRole}: this function's purpose is to provide a mechanism for accounts to lose their privileges if they are compromised (such as when a trusted device is misplaced). If the calling account had been revoked `role`, emits a {RoleRevoked} event. Requirements: - the caller must be `callerConfirmation`. May emit a {RoleRevoked} event."
      },
      "revokeRole(bytes32,address)": {
        "details": "Revokes `role` from `account`. If `account` had been granted `role`, emits a {RoleRevoked} event. Requirements: - the caller must have ``role``'s admin role. May emit a {RoleRevoked} event."
      },
      "supportsInterface(bytes4)": {
        "details": "See {IERC165-supportsInterface}."
      }
    },
    "version": 1
  },
  "userdoc": {
    "kind": "user",
    "methods": {},
    "version": 1
  },
  "storageLayout": {
    "storage": [
      {
        "astId": 1896,
        "contract": "contracts/finance/AssetManager.sol:AssetManager",
        "label": "_status",
        "offset": 0,
        "slot": "0",
        "type": "t_uint256"
      },
      {
        "astId": 2080,
        "contract": "contracts/finance/AssetManager.sol:AssetManager",
        "label": "ethAssets",
        "offset": 0,
        "slot": "1",
        "type": "t_mapping(t_address,t_uint256)"
      },
      {
        "astId": 2087,
        "contract": "contracts/finance/AssetManager.sol:AssetManager",
        "label": "erc20Asset",
        "offset": 0,
        "slot": "2",
        "type": "t_mapping(t_address,t_mapping(t_address,t_struct(ERC20Asset)2065_storage))"
      },
      {
        "astId": 2094,
        "contract": "contracts/finance/AssetManager.sol:AssetManager",
        "label": "erc721Asset",
        "offset": 0,
        "slot": "3",
        "type": "t_mapping(t_address,t_mapping(t_uint256,t_struct(ERC721Asset)2072_storage))"
      }
    ],
    "types": {
      "t_address": {
        "encoding": "inplace",
        "label": "address",
        "numberOfBytes": "20"
      },
      "t_mapping(t_address,t_mapping(t_address,t_struct(ERC20Asset)2065_storage))": {
        "encoding": "mapping",
        "key": "t_address",
        "label": "mapping(address => mapping(address => struct AssetManager.ERC20Asset))",
        "numberOfBytes": "32",
        "value": "t_mapping(t_address,t_struct(ERC20Asset)2065_storage)"
      },
      "t_mapping(t_address,t_mapping(t_uint256,t_struct(ERC721Asset)2072_storage))": {
        "encoding": "mapping",
        "key": "t_address",
        "label": "mapping(address => mapping(uint256 => struct AssetManager.ERC721Asset))",
        "numberOfBytes": "32",
        "value": "t_mapping(t_uint256,t_struct(ERC721Asset)2072_storage)"
      },
      "t_mapping(t_address,t_struct(ERC20Asset)2065_storage)": {
        "encoding": "mapping",
        "key": "t_address",
        "label": "mapping(address => struct AssetManager.ERC20Asset)",
        "numberOfBytes": "32",
        "value": "t_struct(ERC20Asset)2065_storage"
      },
      "t_mapping(t_address,t_uint256)": {
        "encoding": "mapping",
        "key": "t_address",
        "label": "mapping(address => uint256)",
        "numberOfBytes": "32",
        "value": "t_uint256"
      },
      "t_mapping(t_uint256,t_struct(ERC721Asset)2072_storage)": {
        "encoding": "mapping",
        "key": "t_uint256",
        "label": "mapping(uint256 => struct AssetManager.ERC721Asset)",
        "numberOfBytes": "32",
        "value": "t_struct(ERC721Asset)2072_storage"
      },
      "t_struct(ERC20Asset)2065_storage": {
        "encoding": "inplace",
        "label": "struct AssetManager.ERC20Asset",
        "members": [
          {
            "astId": 2060,
            "contract": "contracts/finance/AssetManager.sol:AssetManager",
            "label": "amount",
            "offset": 0,
            "slot": "0",
            "type": "t_uint256"
          },
          {
            "astId": 2062,
            "contract": "contracts/finance/AssetManager.sol:AssetManager",
            "label": "depositTime",
            "offset": 0,
            "slot": "1",
            "type": "t_uint256"
          },
          {
            "astId": 2064,
            "contract": "contracts/finance/AssetManager.sol:AssetManager",
            "label": "modifiedTime",
            "offset": 0,
            "slot": "2",
            "type": "t_uint256"
          }
        ],
        "numberOfBytes": "96"
      },
      "t_struct(ERC721Asset)2072_storage": {
        "encoding": "inplace",
        "label": "struct AssetManager.ERC721Asset",
        "members": [
          {
            "astId": 2067,
            "contract": "contracts/finance/AssetManager.sol:AssetManager",
            "label": "user",
            "offset": 0,
            "slot": "0",
            "type": "t_address"
          },
          {
            "astId": 2069,
            "contract": "contracts/finance/AssetManager.sol:AssetManager",
            "label": "depositTime",
            "offset": 0,
            "slot": "1",
            "type": "t_uint256"
          },
          {
            "astId": 2071,
            "contract": "contracts/finance/AssetManager.sol:AssetManager",
            "label": "modifiedTime",
            "offset": 0,
            "slot": "2",
            "type": "t_uint256"
          }
        ],
        "numberOfBytes": "96"
      },
      "t_uint256": {
        "encoding": "inplace",
        "label": "uint256",
        "numberOfBytes": "32"
      }
    }
  }
}